:100000000C945D000C9485000C9485000C94850084
:100010000C9485000C9485000C9485000C9485004C
:100020000C9485000C9485000C9485000C94A0021F
:100030000C9485000C9485000C9485000C9485002C
:100040000C94FE010C9485000C946E020C944802F2
:100050000C9485000C9485000C9485000C9485000C
:100060000C9485000C94850000000008000201003B
:100070000003040700000000000000000000000072
:10008000250028002B0000000000240027002A0083
:10009000040404040404040402020202020203032E
:1000A0000303030301020408102040800102040836
:1000B0001020010204081020B20311241FBECFEF4C
:1000C000D8E0DEBFCDBF11E0A0E0B1E0E8EDF7E0A1
:1000D00002C005900D92A231B107D9F721E0A2E14B
:1000E000B1E001C01D92AD3DB207E1F710E0CDE5F2
:1000F000D0E004C02197FE010E94DF03CC35D10778
:10010000C9F70E9404030C94EA030C94000090E0E9
:10011000FC01EC55FF4F2491FC01E057FF4F849107
:10012000882399F090E0880F991FFC01EA57FF4F50
:10013000A591B491FC01E458FF4F859194918FB73C
:10014000F894EC91E22BEC938FBF0895CF92DF925D
:10015000EF92FF920F931F93CF93DF936C017A017D
:100160008B01C0E0D0E0CE15DF0589F0D8016D919C
:100170008D01D601ED91FC910190F081E02DC60139
:100180000995892B11F47E0102C02196ECCFC7019D
:10019000DF91CF911F910F91FF90EF90DF90CF9063
:1001A0000895089580E090E00895FC01538D448DFA
:1001B000252F30E0842F90E0821B930B541710F012
:1001C000CF96089501970895FC01918D828D98171F
:1001D00061F0828DDF01A80FB11D5D968C91928D2B
:1001E0009F5F9F73928F90E008958FEF9FEF089528
:1001F000FC01918D828D981731F0828DE80FF11DF1
:10020000858D90E008958FEF9FEF0895FC01918D0B
:10021000228D892F90E0805C9F4F821B91098F7304
:100220009927089587E391E00E94060121E0892B38
:1002300009F420E0822F0895FC01848DDF01A80FCE
:10024000B11DA35ABF4F2C91848D90E001968F73FE
:100250009927848FA689B7892C93A089B1898C911D
:1002600080648C93938D848D981306C00288F389E3
:10027000E02D80818F7D80830895EF92FF920F9310
:100280001F93CF93DF93EC0181E0888F9B8D8C8D42
:10029000981305C0E889F989808185FD24C0F62E70
:1002A0000B8D10E00F5F1F4F0F731127E02E8C8D09
:1002B000E8120CC00FB607FCFACFE889F9898081F3
:1002C00085FFF5CFCE010E941C01F1CF8B8DFE0181
:1002D000E80FF11DE35AFF4FF0820B8FEA89FB898B
:1002E0008081806207C0EE89FF896083E889F9898F
:1002F00080818064808381E090E0DF91CF911F91C5
:100300000F91FF90EF900895CF93DF93EC01888DCC
:100310008823C9F0EA89FB89808185FD05C0A88909
:10032000B9898C9186FD0FC00FB607FCF5CF80818F
:1003300085FFF2CFA889B9898C9185FFEDCFCE01D9
:100340000E941C01E7CFDF91CF91089580E090E0FB
:10035000892B29F00E94120181110C94000008954C
:1003600090E0FC01E859FF4F3491FC01EC55FF4F40
:100370002491FC01E057FF4FE491EE2309F43BC0C8
:10038000332339F1333091F038F43130A9F0323081
:1003900001F584B58F7D12C0373091F03830A1F06F
:1003A0003430B9F4809180008F7D03C0809180004B
:1003B0008F77809380000DC084B58F7784BD09C08E
:1003C0008091B0008F7703C08091B0008F7D8093C3
:1003D000B000F0E0EE0FFF1FE458FF4FA591B4917D
:1003E0008FB7F894EC91611103C020952E2301C0C2
:1003F0002E2B2C938FBF08950E94E5031F920F921E
:100400000FB60F9211242F933F938F939F93AF9327
:10041000BF938091D9019091DA01A091DB01B09155
:10042000DC013091D80123E0230F2D3720F4019611
:10043000A11DB11D05C026E8230F0296A11DB11D07
:100440002093D8018093D9019093DA01A093DB0126
:10045000B093DC018091D4019091D501A091D60197
:10046000B091D7010196A11DB11D8093D401909345
:10047000D501A093D601B093D701BF91AF919F91C1
:100480008F913F912F910F900FBE0F901F90189555
:100490001F920F920FB60F9211242F933F934F93F9
:1004A0005F936F937F938F939F93AF93BF93EF93DC
:1004B000FF9387E391E00E941C01FF91EF91BF91B0
:1004C000AF919F918F917F916F915F914F913F91EC
:1004D0002F910F900FBE0F901F9018951F920F92A3
:1004E0000FB60F9211242F938F939F93EF93FF9347
:1004F000E0914701F09148018081E0914D01F09138
:100500004E0182FD12C09081809150018F5F8F73E8
:1005100020915101821751F0E0915001F0E0E95C27
:10052000FE4F958F8093500101C08081FF91EF9124
:100530009F918F912F910F900FBE0F901F90189544
:100540001F920F920FB60F9211242F933F938F9308
:100550009F93EF93FF938091360187FF05C0109220
:1005600085001092840005C08091360187FD80913E
:100570003601809136018F5F80933601809136017C
:1005800087FF20C0809136018C30E4F420918400F4
:100590003091850080913601082E000C990BFC01EA
:1005A000EE0FFF1F8E0F9F1FFC01EE5EFE4F81813D
:1005B0009281820F931F909389008093880080918D
:1005C000360117C080918400909185000496803494
:1005D0009C4918F480E49CE905C0809184009091C6
:1005E0008500049690938900809388008FEF809314
:1005F0003601FF91EF919F918F913F912F910F9035
:100600000FBE0F901F901895789484B5826084BDBA
:1006100084B5816084BD85B5826085BD85B5816006
:1006200085BD80916E00816080936E001092810084
:10063000809181008260809381008091810081603F
:100640008093810080918000816080938000809100
:10065000B10084608093B1008091B000816080938C
:10066000B00080917A00846080937A0080917A0053
:10067000826080937A0080917A00816080937A0012
:1006800080917A00806880937A001092C100E09196
:100690004701F091480182E08083E0914301F091AD
:1006A00044011082E0914501F09146018FEC808376
:1006B00010924F01E0914B01F0914C0186E0808354
:1006C000E0914901F0914A01808180618083E0914D
:1006D0004901F0914A01808188608083E09149015D
:1006E000F0914A01808180688083E0914901F09116
:1006F0004A0180818F7D808381E00E94870082E0B3
:100700000E94870083E00E94870084E00E948700A7
:1007100085E00E94870086E00E94870087E00E94B3
:10072000870088E00E94870089E00E9487008AE0B5
:100730000E9487008BE00E9487008CE00E94870067
:100740008DE00E94870061E08DE00E94B00161E0D1
:1007500084E00E94B00161E086E00E94B0010E9446
:10076000A601F1CFE7E3F1E01382128288EE93E075
:10077000A0E0B0E084839583A683B78384E091E012
:100780009183808385EC90E09587848784EC90E06A
:100790009787868780EC90E0918B808B81EC90E04E
:1007A000938B828B82EC90E0958B848B86EC90E02F
:1007B000978B868B118E128E138E148E0895EE0FEA
:1007C000FF1F0590F491E02D099481E090E0F894EA
:0807D0000C94EA03F894FFCF3A
:1007D800000000003D01A600D50084010601E400E8
:0207E800F80017
:00000001FF
