:100000000C945D000C9485000C9485000C94850084
:100010000C9485000C9485000C9485000C9485004C
:100020000C9485000C9485000C9485000C94C502FA
:100030000C9485000C9485000C9485000C9485002C
:100040000C947B020C9485000C9449020C942302BE
:100050000C9485000C9485000C9485000C9485000C
:100060000C9485000C94850000000008000201003B
:100070000003040700000000000000000000000072
:10008000250028002B0000000000240027002A0083
:10009000040404040404040402020202020203032E
:1000A0000303030301020408102040800102040836
:1000B0001020010204081020090411241FBECFEFF4
:1000C000D8E0DEBFCDBF11E0A0E0B1E0E6E8F8E0A7
:1000D00002C005900D92A231B107D9F721E0A2E14B
:1000E000B1E001C01D92AD3DB207E1F710E0CDE5F2
:1000F000D0E004C02197FE010E943604CC35D10720
:10010000C9F70E9429030C9441040C94000090E06C
:10011000FC01EC55FF4F2491FC01E057FF4F849107
:10012000882399F090E0880F991FFC01EA57FF4F50
:10013000A591B491FC01E458FF4F859194918FB73C
:10014000F894EC91E22BEC938FBF0895CF92DF925D
:10015000EF92FF920F931F93CF93DF936C017A017D
:100160008B01C0E0D0E0CE15DF0589F0D8016D919C
:100170008D01D601ED91FC910190F081E02DC60139
:100180000995892B11F47E0102C02196ECCFC7019D
:10019000DF91CF911F910F91FF90EF90DF90CF9063
:1001A0000895089580E090E00895FC01538D448DFA
:1001B000252F30E0842F90E0821B930B541710F012
:1001C000CF96089501970895FC01918D828D98171F
:1001D00061F0828DDF01A80FB11D5D968C91928D2B
:1001E0009F5F9F73928F90E008958FEF9FEF089528
:1001F000FC01918D828D981731F0828DE80FF11DF1
:10020000858D90E008958FEF9FEF0895FC01918D0B
:10021000228D892F90E0805C9F4F821B91098F7304
:100220009927089580E491E00E94060121E0892B3E
:1002300009F420E0822F0895FC01848DDF01A80FCE
:10024000B11DA35ABF4F2C91848D90E001968F73FE
:100250009927848FA689B7892C93A089B1898C911D
:1002600080648C93938D848D981306C00288F389E3
:10027000E02D80818F7D80830895EF92FF920F9310
:100280001F93CF93DF93EC0181E0888F9B8D8C8D42
:10029000981305C0E889F989808185FD24C0F62E70
:1002A0000B8D10E00F5F1F4F0F731127E02E8C8D09
:1002B000E8120CC00FB607FCFACFE889F9898081F3
:1002C00085FFF5CFCE010E941C01F1CF8B8DFE0181
:1002D000E80FF11DE35AFF4FF0820B8FEA89FB898B
:1002E0008081806207C0EE89FF896083E889F9898F
:1002F00080818064808381E090E0DF91CF911F91C5
:100300000F91FF90EF900895CF93DF93EC01888DCC
:100310008823C9F0EA89FB89808185FD05C0A88909
:10032000B9898C9186FD0FC00FB607FCF5CF80818F
:1003300085FFF2CFA889B9898C9185FFEDCFCE01D9
:100340000E941C01E7CFDF91CF91089580E090E0FB
:10035000892B29F00E94120181110C94000008954C
:1003600090E0FC01E859FF4F3491FC01EC55FF4F40
:100370002491FC01E057FF4FE491EE2309F43BC0C8
:10038000332339F1333091F038F43130A9F0323081
:1003900001F584B58F7D12C0373091F03830A1F06F
:1003A0003430B9F4809180008F7D03C0809180004B
:1003B0008F77809380000DC084B58F7784BD09C08E
:1003C0008091B0008F7703C08091B0008F7D8093C3
:1003D000B000F0E0EE0FFF1FE458FF4FA591B4917D
:1003E0008FB7F894EC91611103C020952E2301C0C2
:1003F0002E2B2C938FBF08953FB7F89480913C012A
:1004000090913D01A0913E01B0913F0126B5A89B7E
:1004100005C02F3F19F00196A11DB11D3FBFBA2F96
:10042000A92F982F8827820F911DA11DB11DBC01F6
:10043000CD0142E0660F771F881F991F4A95D1F7BB
:1004400008950E943C041F920F920FB60F92112440
:100450002F933F934F935F936F937F938F939F93CC
:10046000AF93BF93EF93FF9380E491E00E941C0150
:10047000FF91EF91BF91AF919F918F917F916F917C
:100480005F914F913F912F910F900FBE0F901F9052
:1004900018951F920F920FB60F9211242F938F93DE
:1004A0009F93EF93FF93E0915001F0915101808170
:1004B000E0915601F091570182FD12C09081809128
:1004C00059018F5F8F7320915A01821751F0E0918B
:1004D0005901F0E0E05CFE4F958F8093590101C017
:1004E0008081FF91EF919F918F912F910F900FBE7F
:1004F0000F901F9018951F920F920FB60F92112414
:100500002F933F938F939F93AF93BF938091380125
:1005100090913901A0913A01B0913B01309137019E
:1005200023E0230F2D3720F40196A11DB11D05C036
:1005300026E8230F0296A11DB11D20933701809359
:10054000380190933901A0933A01B0933B01809117
:100550003C0190913D01A0913E01B0913F01019677
:10056000A11DB11D80933C0190933D01A0933E01DC
:10057000B0933F01BF91AF919F918F913F912F9188
:100580000F900FBE0F901F9018951F920F920FB6ED
:100590000F9211242F933F938F939F93EF93FF9389
:1005A0008091360187FF05C010928500109284006B
:1005B00005C08091360187FD80913601809136011A
:1005C0008F5F809336018091360187FF20C0809134
:1005D00036018C30E4F420918400309185008091C4
:1005E0003601082E000C990BFC01EE0FFF1F8E0F39
:1005F0009F1FFC01EE5EFE4F81819281820F931F4F
:1006000090938900809388008091360117C0809173
:10061000840090918500049680349C4918F480E40D
:100620009CE905C080918400909185000496909388
:100630008900809388008FEF80933601FF91EF91BE
:100640009F918F913F912F910F900FBE0F901F9010
:100650001895789484B5826084BD84B5816084BD2A
:1006600085B5826085BD85B5816085BD80916E0050
:10067000816080936E001092810080918100826081
:1006800080938100809181008160809381008091BE
:1006900080008160809380008091B10084608093AD
:1006A000B1008091B00081608093B00080917A00A9
:1006B000846080937A0080917A00826080937A00CF
:1006C00080917A00816080937A0080917A008068BE
:1006D00080937A001092C100E0915001F091510195
:1006E00082E08083E0914C01F0914D011082E09115
:1006F0004E01F0914F018FEC808310925801E091F0
:100700005401F091550186E08083E0915201F0910F
:100710005301808180618083E0915201F091530107
:10072000808188608083E0915201F0915301808143
:1007300080688083E0915201F091530180818F7D28
:10074000808381E00E94870082E00E94870083E02E
:100750000E94870084E00E94870085E00E94870055
:1007600086E00E94870087E00E94870088E00E9460
:10077000870089E00E9487008AE00E9487008BE062
:100780000E9487008CE00E9487008DE00E94870015
:10079000C2E0D0E061E08DE00E94B00161E084E061
:1007A0000E94B0010E94FC014B015C0188EBC82E45
:1007B0008BE0D82EE12CF12C0E94FC01DC01CB0156
:1007C00088199909AA09BB09883E9340A105B1057A
:1007D00058F021E0C21AD108E108F10888EE880E2D
:1007E00083E0981EA11CB11CC114D104E104F104E2
:1007F00019F760E08DE00E94B00160E084E00E94A3
:10080000B001219719F0C1E0D0E0C4CF0E94A60149
:10081000BFCFE0E4F1E01382128288EE93E0A0E023
:10082000B0E084839583A683B78384E091E09183CD
:10083000808385EC90E09587848784EC90E09787AF
:10084000868780EC90E0918B808B81EC90E0938B9D
:10085000828B82EC90E0958B848B86EC90E0978B7A
:10086000868B118E128E138E148E0895EE0FFF1F3D
:100870000590F491E02D099481E090E0F8940C94B7
:060880004104F894FFCFD3
:10088600000000003D01A600D50084010601E40039
:02089600F80068
:00000001FF
